{
    "_format": "hh-sol-artifact-1",
    "contractName": "Lydia",
    "sourceName": "contracts/Lydia.sol",
    "abi": [
        {
            "inputs": [],
            "stateMutability": "nonpayable",
            "type": "constructor"
        },
        {
            "anonymous": false,
            "inputs": [
                {
                    "indexed": true,
                    "internalType": "address",
                    "name": "_from",
                    "type": "address"
                },
                {
                    "indexed": true,
                    "internalType": "address",
                    "name": "_to",
                    "type": "address"
                },
                {
                    "indexed": false,
                    "internalType": "uint256",
                    "name": "_value",
                    "type": "uint256"
                },
                {
                    "indexed": false,
                    "internalType": "string",
                    "name": "message",
                    "type": "string"
                },
                {
                    "indexed": false,
                    "internalType": "uint256",
                    "name": "timestamp",
                    "type": "uint256"
                }
            ],
            "name": "Transfer",
            "type": "event"
        },
        {
            "inputs": [],
            "name": "getTransactions",
            "outputs": [
                {
                    "components": [
                        {
                            "internalType": "address",
                            "name": "sender",
                            "type": "address"
                        },
                        {
                            "internalType": "address",
                            "name": "receiver",
                            "type": "address"
                        },
                        {
                            "internalType": "uint256",
                            "name": "value",
                            "type": "uint256"
                        },
                        {
                            "internalType": "string",
                            "name": "message",
                            "type": "string"
                        },
                        {
                            "internalType": "uint256",
                            "name": "timestamp",
                            "type": "uint256"
                        }
                    ],
                    "internalType": "struct Lydia.Transaction[]",
                    "name": "",
                    "type": "tuple[]"
                }
            ],
            "stateMutability": "view",
            "type": "function"
        },
        {
            "inputs": [],
            "name": "transactionCount",
            "outputs": [
                {
                    "internalType": "uint256",
                    "name": "",
                    "type": "uint256"
                }
            ],
            "stateMutability": "view",
            "type": "function"
        },
        {
            "inputs": [
                {
                    "internalType": "uint256",
                    "name": "",
                    "type": "uint256"
                }
            ],
            "name": "transactions",
            "outputs": [
                {
                    "internalType": "address",
                    "name": "sender",
                    "type": "address"
                },
                {
                    "internalType": "address",
                    "name": "receiver",
                    "type": "address"
                },
                {
                    "internalType": "uint256",
                    "name": "value",
                    "type": "uint256"
                },
                {
                    "internalType": "string",
                    "name": "message",
                    "type": "string"
                },
                {
                    "internalType": "uint256",
                    "name": "timestamp",
                    "type": "uint256"
                }
            ],
            "stateMutability": "view",
            "type": "function"
        },
        {
            "inputs": [
                {
                    "internalType": "address",
                    "name": "_receiver",
                    "type": "address"
                },
                {
                    "internalType": "string",
                    "name": "message",
                    "type": "string"
                }
            ],
            "name": "transfer",
            "outputs": [],
            "stateMutability": "payable",
            "type": "function"
        }
    ],
    "bytecode": "0x608060405234801561001057600080fd5b506000808190555061103b806100276000396000f3fe60806040526004361061003f5760003560e01c8063098866491461004457806383920e90146100605780639ace38c21461008b578063b77bf600146100cc575b600080fd5b61005e60048036038101906100599190610785565b6100f7565b005b34801561006c57600080fd5b506100756103f3565b60405161008291906109d5565b60405180910390f35b34801561009757600080fd5b506100b260048036038101906100ad9190610a23565b6105a4565b6040516100c3959493929190610ab8565b60405180910390f35b3480156100d857600080fd5b506100e16106b2565b6040516100ee9190610b12565b60405180910390f35b6000341161013a576040517f08c379a000000000000000000000000000000000000000000000000000000000815260040161013190610b79565b60405180910390fd5b600073ffffffffffffffffffffffffffffffffffffffff168373ffffffffffffffffffffffffffffffffffffffff16036101a9576040517f08c379a00000000000000000000000000000000000000000000000000000000081526004016101a090610be5565b60405180910390fd5b8273ffffffffffffffffffffffffffffffffffffffff166108fc349081150290604051600060405180830381858888f193505050501580156101ef573d6000803e3d6000fd5b5060016040518060a001604052803373ffffffffffffffffffffffffffffffffffffffff1681526020018573ffffffffffffffffffffffffffffffffffffffff16815260200134815260200184848080601f016020809104026020016040519081016040528093929190818152602001838380828437600081840152601f19601f82011690508083019250505050505050815260200142815250908060018154018082558091505060019003906000526020600020906005020160009091909190915060008201518160000160006101000a81548173ffffffffffffffffffffffffffffffffffffffff021916908373ffffffffffffffffffffffffffffffffffffffff16021790555060208201518160010160006101000a81548173ffffffffffffffffffffffffffffffffffffffff021916908373ffffffffffffffffffffffffffffffffffffffff16021790555060408201518160020155606082015181600301908161035f9190610e40565b5060808201518160040155505060008081548092919061037e90610f41565b91905055508273ffffffffffffffffffffffffffffffffffffffff163373ffffffffffffffffffffffffffffffffffffffff167fc4b32d7ff75a51e487f3cbb5d3202f2efecca1f4c2b987e0039c1d3220b48a83348585426040516103e69493929190610fc5565b60405180910390a3505050565b60606001805480602002602001604051908101604052809291908181526020016000905b8282101561059b57838290600052602060002090600502016040518060a00160405290816000820160009054906101000a900473ffffffffffffffffffffffffffffffffffffffff1673ffffffffffffffffffffffffffffffffffffffff1673ffffffffffffffffffffffffffffffffffffffff1681526020016001820160009054906101000a900473ffffffffffffffffffffffffffffffffffffffff1673ffffffffffffffffffffffffffffffffffffffff1673ffffffffffffffffffffffffffffffffffffffff1681526020016002820154815260200160038201805461050090610c63565b80601f016020809104026020016040519081016040528092919081815260200182805461052c90610c63565b80156105795780601f1061054e57610100808354040283529160200191610579565b820191906000526020600020905b81548152906001019060200180831161055c57829003601f168201915b5050505050815260200160048201548152505081526020019060010190610417565b50505050905090565b600181815481106105b457600080fd5b90600052602060002090600502016000915090508060000160009054906101000a900473ffffffffffffffffffffffffffffffffffffffff16908060010160009054906101000a900473ffffffffffffffffffffffffffffffffffffffff169080600201549080600301805461062990610c63565b80601f016020809104026020016040519081016040528092919081815260200182805461065590610c63565b80156106a25780601f10610677576101008083540402835291602001916106a2565b820191906000526020600020905b81548152906001019060200180831161068557829003601f168201915b5050505050908060040154905085565b60005481565b600080fd5b600080fd5b600073ffffffffffffffffffffffffffffffffffffffff82169050919050565b60006106ed826106c2565b9050919050565b6106fd816106e2565b811461070857600080fd5b50565b60008135905061071a816106f4565b92915050565b600080fd5b600080fd5b600080fd5b60008083601f84011261074557610744610720565b5b8235905067ffffffffffffffff81111561076257610761610725565b5b60208301915083600182028301111561077e5761077d61072a565b5b9250929050565b60008060006040848603121561079e5761079d6106b8565b5b60006107ac8682870161070b565b935050602084013567ffffffffffffffff8111156107cd576107cc6106bd565b5b6107d98682870161072f565b92509250509250925092565b600081519050919050565b600082825260208201905092915050565b6000819050602082019050919050565b61081a816106e2565b82525050565b6000819050919050565b61083381610820565b82525050565b600081519050919050565b600082825260208201905092915050565b60005b83811015610873578082015181840152602081019050610858565b60008484015250505050565b6000601f19601f8301169050919050565b600061089b82610839565b6108a58185610844565b93506108b5818560208601610855565b6108be8161087f565b840191505092915050565b600060a0830160008301516108e16000860182610811565b5060208301516108f46020860182610811565b506040830151610907604086018261082a565b506060830151848203606086015261091f8282610890565b9150506080830151610934608086018261082a565b508091505092915050565b600061094b83836108c9565b905092915050565b6000602082019050919050565b600061096b826107e5565b61097581856107f0565b93508360208202850161098785610801565b8060005b858110156109c357848403895281516109a4858261093f565b94506109af83610953565b925060208a0199505060018101905061098b565b50829750879550505050505092915050565b600060208201905081810360008301526109ef8184610960565b905092915050565b610a0081610820565b8114610a0b57600080fd5b50565b600081359050610a1d816109f7565b92915050565b600060208284031215610a3957610a386106b8565b5b6000610a4784828501610a0e565b91505092915050565b610a59816106e2565b82525050565b610a6881610820565b82525050565b600082825260208201905092915050565b6000610a8a82610839565b610a948185610a6e565b9350610aa4818560208601610855565b610aad8161087f565b840191505092915050565b600060a082019050610acd6000830188610a50565b610ada6020830187610a50565b610ae76040830186610a5f565b8181036060830152610af98185610a7f565b9050610b086080830184610a5f565b9695505050505050565b6000602082019050610b276000830184610a5f565b92915050565b7f596f75206d7573742073656e6420736f6d652045746865720000000000000000600082015250565b6000610b63601883610a6e565b9150610b6e82610b2d565b602082019050919050565b60006020820190508181036000830152610b9281610b56565b9050919050565b7f596f75206d757374207370656369667920612072656365697665720000000000600082015250565b6000610bcf601b83610a6e565b9150610bda82610b99565b602082019050919050565b60006020820190508181036000830152610bfe81610bc2565b9050919050565b7f4e487b7100000000000000000000000000000000000000000000000000000000600052604160045260246000fd5b7f4e487b7100000000000000000000000000000000000000000000000000000000600052602260045260246000fd5b60006002820490506001821680610c7b57607f821691505b602082108103610c8e57610c8d610c34565b5b50919050565b60008190508160005260206000209050919050565b60006020601f8301049050919050565b600082821b905092915050565b600060088302610cf67fffffffffffffffffffffffffffffffffffffffffffffffffffffffffffffffff82610cb9565b610d008683610cb9565b95508019841693508086168417925050509392505050565b6000819050919050565b6000610d3d610d38610d3384610820565b610d18565b610820565b9050919050565b6000819050919050565b610d5783610d22565b610d6b610d6382610d44565b848454610cc6565b825550505050565b600090565b610d80610d73565b610d8b818484610d4e565b505050565b5b81811015610daf57610da4600082610d78565b600181019050610d91565b5050565b601f821115610df457610dc581610c94565b610dce84610ca9565b81016020851015610ddd578190505b610df1610de985610ca9565b830182610d90565b50505b505050565b600082821c905092915050565b6000610e1760001984600802610df9565b1980831691505092915050565b6000610e308383610e06565b9150826002028217905092915050565b610e4982610839565b67ffffffffffffffff811115610e6257610e61610c05565b5b610e6c8254610c63565b610e77828285610db3565b600060209050601f831160018114610eaa5760008415610e98578287015190505b610ea28582610e24565b865550610f0a565b601f198416610eb886610c94565b60005b82811015610ee057848901518255600182019150602085019450602081019050610ebb565b86831015610efd5784890151610ef9601f891682610e06565b8355505b6001600288020188555050505b505050505050565b7f4e487b7100000000000000000000000000000000000000000000000000000000600052601160045260246000fd5b6000610f4c82610820565b91507fffffffffffffffffffffffffffffffffffffffffffffffffffffffffffffffff8203610f7e57610f7d610f12565b5b600182019050919050565b82818337600083830152505050565b6000610fa48385610a6e565b9350610fb1838584610f89565b610fba8361087f565b840190509392505050565b6000606082019050610fda6000830187610a5f565b8181036020830152610fed818587610f98565b9050610ffc6040830184610a5f565b9594505050505056fea2646970667358221220b58131350cd3ad2c3babf7b22d0b7e25c0fe5501b5d970739e35f980f8492cf964736f6c63430008110033",
    "linkReferences": {},
    "deployedLinkReferences": {}
}